{
  "_format": "hh-sol-artifact-1",
  "contractName": "L2Contract",
  "sourceName": "contracts/L2Contract.sol",
  "abi": [
    {
      "inputs": [
        {
          "internalType": "address",
          "name": "_l1Contract",
          "type": "address"
        }
      ],
      "stateMutability": "nonpayable",
      "type": "constructor"
    },
    {
      "inputs": [],
      "name": "greeting",
      "outputs": [
        {
          "internalType": "string",
          "name": "",
          "type": "string"
        }
      ],
      "stateMutability": "view",
      "type": "function"
    },
    {
      "inputs": [
        {
          "internalType": "string",
          "name": "_greeting",
          "type": "string"
        }
      ],
      "name": "setGreeting",
      "outputs": [],
      "stateMutability": "nonpayable",
      "type": "function"
    }
  ],
  "bytecode": "0x60806040526040518060400160405280600581526020017f68656c6c6f000000000000000000000000000000000000000000000000000000815250600190816200004a91906200033f565b503480156200005857600080fd5b5060405162000c4438038062000c4483398181016040528101906200007e919062000490565b806000806101000a81548173ffffffffffffffffffffffffffffffffffffffff021916908373ffffffffffffffffffffffffffffffffffffffff16021790555050620004c2565b600081519050919050565b7f4e487b7100000000000000000000000000000000000000000000000000000000600052604160045260246000fd5b7f4e487b7100000000000000000000000000000000000000000000000000000000600052602260045260246000fd5b600060028204905060018216806200014757607f821691505b6020821081036200015d576200015c620000ff565b5b50919050565b60008190508160005260206000209050919050565b60006020601f8301049050919050565b600082821b905092915050565b600060088302620001c77fffffffffffffffffffffffffffffffffffffffffffffffffffffffffffffffff8262000188565b620001d3868362000188565b95508019841693508086168417925050509392505050565b6000819050919050565b6000819050919050565b6000620002206200021a6200021484620001eb565b620001f5565b620001eb565b9050919050565b6000819050919050565b6200023c83620001ff565b620002546200024b8262000227565b84845462000195565b825550505050565b600090565b6200026b6200025c565b6200027881848462000231565b505050565b5b81811015620002a0576200029460008262000261565b6001810190506200027e565b5050565b601f821115620002ef57620002b98162000163565b620002c48462000178565b81016020851015620002d4578190505b620002ec620002e38562000178565b8301826200027d565b50505b505050565b600082821c905092915050565b60006200031460001984600802620002f4565b1980831691505092915050565b60006200032f838362000301565b9150826002028217905092915050565b6200034a82620000c5565b67ffffffffffffffff811115620003665762000365620000d0565b5b6200037282546200012e565b6200037f828285620002a4565b600060209050601f831160018114620003b75760008415620003a2578287015190505b620003ae858262000321565b8655506200041e565b601f198416620003c78662000163565b60005b82811015620003f157848901518255600182019150602085019450602081019050620003ca565b868310156200041157848901516200040d601f89168262000301565b8355505b6001600288020188555050505b505050505050565b600080fd5b600073ffffffffffffffffffffffffffffffffffffffff82169050919050565b600062000458826200042b565b9050919050565b6200046a816200044b565b81146200047657600080fd5b50565b6000815190506200048a816200045f565b92915050565b600060208284031215620004a957620004a862000426565b5b6000620004b98482850162000479565b91505092915050565b61077280620004d26000396000f3fe608060405234801561001057600080fd5b50600436106100365760003560e01c8063a41368621461003b578063ef690cc014610057575b600080fd5b610055600480360381019061005091906102fe565b610075565b005b61005f610116565b60405161006c91906103c6565b60405180910390f35b60008054906101000a900473ffffffffffffffffffffffffffffffffffffffff1673ffffffffffffffffffffffffffffffffffffffff163373ffffffffffffffffffffffffffffffffffffffff1614610103576040517f08c379a00000000000000000000000000000000000000000000000000000000081526004016100fa90610434565b60405180910390fd5b8060019081610112919061066a565b5050565b6001805461012390610483565b80601f016020809104026020016040519081016040528092919081815260200182805461014f90610483565b801561019c5780601f106101715761010080835404028352916020019161019c565b820191906000526020600020905b81548152906001019060200180831161017f57829003601f168201915b505050505081565b6000604051905090565b600080fd5b600080fd5b600080fd5b600080fd5b6000601f19601f8301169050919050565b7f4e487b7100000000000000000000000000000000000000000000000000000000600052604160045260246000fd5b61020b826101c2565b810181811067ffffffffffffffff8211171561022a576102296101d3565b5b80604052505050565b600061023d6101a4565b90506102498282610202565b919050565b600067ffffffffffffffff821115610269576102686101d3565b5b610272826101c2565b9050602081019050919050565b82818337600083830152505050565b60006102a161029c8461024e565b610233565b9050828152602081018484840111156102bd576102bc6101bd565b5b6102c884828561027f565b509392505050565b600082601f8301126102e5576102e46101b8565b5b81356102f584826020860161028e565b91505092915050565b600060208284031215610314576103136101ae565b5b600082013567ffffffffffffffff811115610332576103316101b3565b5b61033e848285016102d0565b91505092915050565b600081519050919050565b600082825260208201905092915050565b60005b83811015610381578082015181840152602081019050610366565b60008484015250505050565b600061039882610347565b6103a28185610352565b93506103b2818560208601610363565b6103bb816101c2565b840191505092915050565b600060208201905081810360008301526103e0818461038d565b905092915050565b7f4f6e6c79206c31436f6e747261637420697320616c6c6f776564000000000000600082015250565b600061041e601a83610352565b9150610429826103e8565b602082019050919050565b6000602082019050818103600083015261044d81610411565b9050919050565b7f4e487b7100000000000000000000000000000000000000000000000000000000600052602260045260246000fd5b6000600282049050600182168061049b57607f821691505b6020821081036104ae576104ad610454565b5b50919050565b60008190508160005260206000209050919050565b60006020601f8301049050919050565b600082821b905092915050565b6000600883026105167fffffffffffffffffffffffffffffffffffffffffffffffffffffffffffffffff826104d9565b61052086836104d9565b95508019841693508086168417925050509392505050565b6000819050919050565b6000819050919050565b600061056761056261055d84610538565b610542565b610538565b9050919050565b6000819050919050565b6105818361054c565b61059561058d8261056e565b8484546104e6565b825550505050565b600090565b6105aa61059d565b6105b5818484610578565b505050565b5b818110156105d9576105ce6000826105a2565b6001810190506105bb565b5050565b601f82111561061e576105ef816104b4565b6105f8846104c9565b81016020851015610607578190505b61061b610613856104c9565b8301826105ba565b50505b505050565b600082821c905092915050565b600061064160001984600802610623565b1980831691505092915050565b600061065a8383610630565b9150826002028217905092915050565b61067382610347565b67ffffffffffffffff81111561068c5761068b6101d3565b5b6106968254610483565b6106a18282856105dd565b600060209050601f8311600181146106d457600084156106c2578287015190505b6106cc858261064e565b865550610734565b601f1984166106e2866104b4565b60005b8281101561070a578489015182556001820191506020850194506020810190506106e5565b868310156107275784890151610723601f891682610630565b8355505b6001600288020188555050505b50505050505056fea26469706673582212201d6d6b8c52b0496ac6b406eac63aa77dce943062febdaf0b8b74b3d68b3cb1c864736f6c63430008110033",
  "linkReferences": {},
  "deployedLinkReferences": {}
}