{
  "_format": "hh-sol-artifact-1",
  "contractName": "L1Contract",
  "sourceName": "contracts/L1Contract.sol",
  "abi": [
    {
      "inputs": [],
      "stateMutability": "nonpayable",
      "type": "constructor"
    },
    {
      "anonymous": false,
      "inputs": [
        {
          "indexed": true,
          "internalType": "bytes32",
          "name": "txHash",
          "type": "bytes32"
        },
        {
          "indexed": true,
          "internalType": "address",
          "name": "zkSyncAddress",
          "type": "address"
        },
        {
          "indexed": true,
          "internalType": "address",
          "name": "l2ContractAddress",
          "type": "address"
        },
        {
          "indexed": false,
          "internalType": "bytes",
          "name": "data",
          "type": "bytes"
        }
      ],
      "name": "MessageSent",
      "type": "event"
    },
    {
      "inputs": [],
      "name": "admin",
      "outputs": [
        {
          "internalType": "address",
          "name": "",
          "type": "address"
        }
      ],
      "stateMutability": "view",
      "type": "function"
    },
    {
      "inputs": [
        {
          "internalType": "address",
          "name": "zkSyncAddress",
          "type": "address"
        },
        {
          "internalType": "address",
          "name": "l2ContractAddress",
          "type": "address"
        },
        {
          "internalType": "bytes",
          "name": "data",
          "type": "bytes"
        },
        {
          "internalType": "uint256",
          "name": "gasLimit",
          "type": "uint256"
        },
        {
          "internalType": "uint256",
          "name": "gasPerPubdataByteLimit",
          "type": "uint256"
        }
      ],
      "name": "sendGreetingMessageToL2",
      "outputs": [
        {
          "internalType": "bytes32",
          "name": "txHash",
          "type": "bytes32"
        }
      ],
      "stateMutability": "payable",
      "type": "function"
    }
  ],
  "bytecode": "0x608060405234801561001057600080fd5b50336000806101000a81548173ffffffffffffffffffffffffffffffffffffffff021916908373ffffffffffffffffffffffffffffffffffffffff1602179055506108fa806100606000396000f3fe6080604052600436106100295760003560e01c80638bbb8c201461002e578063f851a4401461005e575b600080fd5b6100486004803603810190610043919061047b565b610089565b604051610055919061052b565b60405180910390f35b34801561006a57600080fd5b50610073610269565b6040516100809190610555565b60405180910390f35b60008060009054906101000a900473ffffffffffffffffffffffffffffffffffffffff1673ffffffffffffffffffffffffffffffffffffffff163373ffffffffffffffffffffffffffffffffffffffff161461011a576040517f08c379a0000000000000000000000000000000000000000000000000000000008152600401610111906105cd565b60405180910390fd5b60008690508073ffffffffffffffffffffffffffffffffffffffff1663eb67241934886000898989600067ffffffffffffffff81111561015d5761015c61031a565b5b60405190808252806020026020018201604052801561019057816020015b606081526020019060019003908161017b5790505b50336040518963ffffffff1660e01b81526004016101b497969594939291906107cc565b60206040518083038185885af11580156101d2573d6000803e3d6000fd5b50505050506040513d601f19601f820116820180604052508101906101f79190610875565b91508573ffffffffffffffffffffffffffffffffffffffff168773ffffffffffffffffffffffffffffffffffffffff16837f61088d5a89c6cf511db3e2c97fb482d4a6e2ab5845f01f916f3b2c7c502290ee8860405161025791906108a2565b60405180910390a45095945050505050565b60008054906101000a900473ffffffffffffffffffffffffffffffffffffffff1681565b6000604051905090565b600080fd5b600080fd5b600073ffffffffffffffffffffffffffffffffffffffff82169050919050565b60006102cc826102a1565b9050919050565b6102dc816102c1565b81146102e757600080fd5b50565b6000813590506102f9816102d3565b92915050565b600080fd5b600080fd5b6000601f19601f8301169050919050565b7f4e487b7100000000000000000000000000000000000000000000000000000000600052604160045260246000fd5b61035282610309565b810181811067ffffffffffffffff821117156103715761037061031a565b5b80604052505050565b600061038461028d565b90506103908282610349565b919050565b600067ffffffffffffffff8211156103b0576103af61031a565b5b6103b982610309565b9050602081019050919050565b82818337600083830152505050565b60006103e86103e384610395565b61037a565b90508281526020810184848401111561040457610403610304565b5b61040f8482856103c6565b509392505050565b600082601f83011261042c5761042b6102ff565b5b813561043c8482602086016103d5565b91505092915050565b6000819050919050565b61045881610445565b811461046357600080fd5b50565b6000813590506104758161044f565b92915050565b600080600080600060a0868803121561049757610496610297565b5b60006104a5888289016102ea565b95505060206104b6888289016102ea565b945050604086013567ffffffffffffffff8111156104d7576104d661029c565b5b6104e388828901610417565b93505060606104f488828901610466565b925050608061050588828901610466565b9150509295509295909350565b6000819050919050565b61052581610512565b82525050565b6000602082019050610540600083018461051c565b92915050565b61054f816102c1565b82525050565b600060208201905061056a6000830184610546565b92915050565b600082825260208201905092915050565b7f4f6e6c792061646d696e20697320616c6c6f7765640000000000000000000000600082015250565b60006105b7601583610570565b91506105c282610581565b602082019050919050565b600060208201905081810360008301526105e6816105aa565b9050919050565b6000819050919050565b6000819050919050565b600061061c610617610612846105ed565b6105f7565b610445565b9050919050565b61062c81610601565b82525050565b600081519050919050565b600082825260208201905092915050565b60005b8381101561066c578082015181840152602081019050610651565b60008484015250505050565b600061068382610632565b61068d818561063d565b935061069d81856020860161064e565b6106a681610309565b840191505092915050565b6106ba81610445565b82525050565b600081519050919050565b600082825260208201905092915050565b6000819050602082019050919050565b600082825260208201905092915050565b600061070882610632565b61071281856106ec565b935061072281856020860161064e565b61072b81610309565b840191505092915050565b600061074283836106fd565b905092915050565b6000602082019050919050565b6000610762826106c0565b61076c81856106cb565b93508360208202850161077e856106dc565b8060005b858110156107ba578484038952815161079b8582610736565b94506107a68361074a565b925060208a01995050600181019050610782565b50829750879550505050505092915050565b600060e0820190506107e1600083018a610546565b6107ee6020830189610623565b81810360408301526108008188610678565b905061080f60608301876106b1565b61081c60808301866106b1565b81810360a083015261082e8185610757565b905061083d60c0830184610546565b98975050505050505050565b61085281610512565b811461085d57600080fd5b50565b60008151905061086f81610849565b92915050565b60006020828403121561088b5761088a610297565b5b600061089984828501610860565b91505092915050565b600060208201905081810360008301526108bc8184610678565b90509291505056fea2646970667358221220880c92e2b90b69fbc57cf32df7143cdd27eb6341f861c3ba42e225a8b91fac2764736f6c63430008110033",
  "linkReferences": {},
  "deployedLinkReferences": {}
}